{
  "contractName": "crowd_Funding_4",
  "abi": [
    {
      "inputs": [
        {
          "internalType": "uint256",
          "name": "_duration",
          "type": "uint256"
        },
        {
          "internalType": "uint256",
          "name": "_goalAmount",
          "type": "uint256"
        }
      ],
      "payable": false,
      "stateMutability": "nonpayable",
      "type": "constructor"
    },
    {
      "constant": true,
      "inputs": [],
      "name": "deadline",
      "outputs": [
        {
          "internalType": "uint256",
          "name": "",
          "type": "uint256"
        }
      ],
      "payable": false,
      "stateMutability": "view",
      "type": "function"
    },
    {
      "constant": true,
      "inputs": [],
      "name": "ended",
      "outputs": [
        {
          "internalType": "bool",
          "name": "",
          "type": "bool"
        }
      ],
      "payable": false,
      "stateMutability": "view",
      "type": "function"
    },
    {
      "constant": true,
      "inputs": [],
      "name": "goalAmount",
      "outputs": [
        {
          "internalType": "uint256",
          "name": "",
          "type": "uint256"
        }
      ],
      "payable": false,
      "stateMutability": "view",
      "type": "function"
    },
    {
      "constant": true,
      "inputs": [
        {
          "internalType": "uint256",
          "name": "",
          "type": "uint256"
        }
      ],
      "name": "investors",
      "outputs": [
        {
          "internalType": "address payable",
          "name": "addr",
          "type": "address"
        },
        {
          "internalType": "uint256",
          "name": "amount",
          "type": "uint256"
        }
      ],
      "payable": false,
      "stateMutability": "view",
      "type": "function"
    },
    {
      "constant": true,
      "inputs": [],
      "name": "numInvestors",
      "outputs": [
        {
          "internalType": "uint256",
          "name": "",
          "type": "uint256"
        }
      ],
      "payable": false,
      "stateMutability": "view",
      "type": "function"
    },
    {
      "constant": true,
      "inputs": [],
      "name": "owner",
      "outputs": [
        {
          "internalType": "address payable",
          "name": "",
          "type": "address"
        }
      ],
      "payable": false,
      "stateMutability": "view",
      "type": "function"
    },
    {
      "constant": true,
      "inputs": [],
      "name": "status",
      "outputs": [
        {
          "internalType": "string",
          "name": "",
          "type": "string"
        }
      ],
      "payable": false,
      "stateMutability": "view",
      "type": "function"
    },
    {
      "constant": true,
      "inputs": [],
      "name": "totalAmount",
      "outputs": [
        {
          "internalType": "uint256",
          "name": "",
          "type": "uint256"
        }
      ],
      "payable": false,
      "stateMutability": "view",
      "type": "function"
    },
    {
      "constant": false,
      "inputs": [],
      "name": "fund",
      "outputs": [],
      "payable": true,
      "stateMutability": "payable",
      "type": "function"
    },
    {
      "constant": false,
      "inputs": [],
      "name": "checkGoalReached",
      "outputs": [],
      "payable": false,
      "stateMutability": "nonpayable",
      "type": "function"
    },
    {
      "constant": false,
      "inputs": [],
      "name": "kill",
      "outputs": [],
      "payable": false,
      "stateMutability": "nonpayable",
      "type": "function"
    },
    {
      "constant": true,
      "inputs": [],
      "name": "returnGoalAmount",
      "outputs": [
        {
          "internalType": "uint256",
          "name": "",
          "type": "uint256"
        }
      ],
      "payable": false,
      "stateMutability": "view",
      "type": "function"
    },
    {
      "constant": true,
      "inputs": [],
      "name": "returnTotalAmount",
      "outputs": [
        {
          "internalType": "uint256",
          "name": "",
          "type": "uint256"
        }
      ],
      "payable": false,
      "stateMutability": "view",
      "type": "function"
    },
    {
      "constant": true,
      "inputs": [],
      "name": "returnDeadline",
      "outputs": [
        {
          "internalType": "uint256",
          "name": "",
          "type": "uint256"
        }
      ],
      "payable": false,
      "stateMutability": "view",
      "type": "function"
    }
  ],
  "bytecode": "0x608060405234801561001057600080fd5b50604051610b90380380610b908339818101604052604081101561003357600080fd5b810190808051906020019092919080519060200190929190505050336000806101000a81548173ffffffffffffffffffffffffffffffffffffffff021916908373ffffffffffffffffffffffffffffffffffffffff160217905550814201600281905550806005819055506040518060400160405280600e81526020017f696e2070726f67726573732e2e2e000000000000000000000000000000000000815250600390805190602001906100e992919061011c565b506000600460006101000a81548160ff0219169083151502179055506000600181905550600060068190555050506101c1565b828054600181600116156101000203166002900490600052602060002090601f016020900481019282601f1061015d57805160ff191683800117855561018b565b8280016001018555821561018b579182015b8281111561018a57825182559160200191906001019061016f565b5b509050610198919061019c565b5090565b6101be91905b808211156101ba5760008160009055506001016101a2565b5090565b90565b6109c0806101d06000396000f3fe6080604052600436106100dd5760003560e01c806329dcb0cf1161007f57806363971af61161005957806363971af6146103285780638da5cb5b14610353578063b60d4288146103aa578063ca85aaa2146103b4576100dd565b806329dcb0cf146102645780633feb5f2b1461028f57806341c0e1b514610311576100dd565b80631488e076116100bb5780631488e076146101535780631a39d8ef1461017e578063200d2ed2146101a95780632636b94514610239576100dd565b806301cb3b20146100e257806312fa6feb146100f9578063132ae5e914610128575b600080fd5b3480156100ee57600080fd5b506100f76103df565b005b34801561010557600080fd5b5061010e61065f565b604051808215151515815260200191505060405180910390f35b34801561013457600080fd5b5061013d610672565b6040518082815260200191505060405180910390f35b34801561015f57600080fd5b50610168610678565b6040518082815260200191505060405180910390f35b34801561018a57600080fd5b50610193610682565b6040518082815260200191505060405180910390f35b3480156101b557600080fd5b506101be610688565b6040518080602001828103825283818151815260200191508051906020019080838360005b838110156101fe5780820151818401526020810190506101e3565b50505050905090810190601f16801561022b5780820380516001836020036101000a031916815260200191505b509250505060405180910390f35b34801561024557600080fd5b5061024e610726565b6040518082815260200191505060405180910390f35b34801561027057600080fd5b5061027961072c565b6040518082815260200191505060405180910390f35b34801561029b57600080fd5b506102c8600480360360208110156102b257600080fd5b8101908080359060200190929190505050610732565b604051808373ffffffffffffffffffffffffffffffffffffffff1673ffffffffffffffffffffffffffffffffffffffff1681526020018281526020019250505060405180910390f35b34801561031d57600080fd5b50610326610776565b005b34801561033457600080fd5b5061033d610809565b6040518082815260200191505060405180910390f35b34801561035f57600080fd5b50610368610813565b604051808273ffffffffffffffffffffffffffffffffffffffff1673ffffffffffffffffffffffffffffffffffffffff16815260200191505060405180910390f35b6103b2610838565b005b3480156103c057600080fd5b506103c96108dc565b6040518082815260200191505060405180910390f35b6000809054906101000a900473ffffffffffffffffffffffffffffffffffffffff1673ffffffffffffffffffffffffffffffffffffffff163373ffffffffffffffffffffffffffffffffffffffff161461043857600080fd5b600460009054906101000a900460ff161561045257600080fd5b60025442101561046157600080fd5b6005546006541061054e576040518060400160405280602081526020017f66756e64696e6720737563636573732e207468616e6b20796f75206775797321815250600390805190602001906104b79291906108e6565b506001600460006101000a81548160ff0219169083151502179055506000809054906101000a900473ffffffffffffffffffffffffffffffffffffffff1673ffffffffffffffffffffffffffffffffffffffff166108fc3073ffffffffffffffffffffffffffffffffffffffff16319081150290604051600060405180830381858888f1935050505061054957600080fd5b61065d565b60008090506040518060400160405280601181526020017f66756e64696e67206661696c65642e2e2e0000000000000000000000000000008152506003908051906020019061059e9291906108e6565b506001600460006101000a81548160ff0219169083151502179055505b600154811161065b576007600082815260200190815260200160002060000160009054906101000a900473ffffffffffffffffffffffffffffffffffffffff1673ffffffffffffffffffffffffffffffffffffffff166108fc60076000848152602001908152602001600020600101549081150290604051600060405180830381858888f1935050505061064e57600080fd5b80806001019150506105bb565b505b565b600460009054906101000a900460ff1681565b60015481565b6000600554905090565b60065481565b60038054600181600116156101000203166002900480601f01602080910402602001604051908101604052809291908181526020018280546001816001161561010002031660029004801561071e5780601f106106f35761010080835404028352916020019161071e565b820191906000526020600020905b81548152906001019060200180831161070157829003601f168201915b505050505081565b60055481565b60025481565b60076020528060005260406000206000915090508060000160009054906101000a900473ffffffffffffffffffffffffffffffffffffffff16908060010154905082565b6000809054906101000a900473ffffffffffffffffffffffffffffffffffffffff1673ffffffffffffffffffffffffffffffffffffffff163373ffffffffffffffffffffffffffffffffffffffff16146107cf57600080fd5b6000809054906101000a900473ffffffffffffffffffffffffffffffffffffffff1673ffffffffffffffffffffffffffffffffffffffff16ff5b6000600254905090565b6000809054906101000a900473ffffffffffffffffffffffffffffffffffffffff1681565b600460009054906101000a900460ff161561085257600080fd5b600060076000600160008154809291906001019190505581526020019081526020016000209050338160000160006101000a81548173ffffffffffffffffffffffffffffffffffffffff021916908373ffffffffffffffffffffffffffffffffffffffff160217905550348160010181905550806001015460066000828254019250508190555050565b6000600654905090565b828054600181600116156101000203166002900490600052602060002090601f016020900481019282601f1061092757805160ff1916838001178555610955565b82800160010185558215610955579182015b82811115610954578251825591602001919060010190610939565b5b5090506109629190610966565b5090565b61098891905b8082111561098457600081600090555060010161096c565b5090565b9056fea265627a7a72315820d83852e282aa54703dfd890e6db11859be9a84f521aa152f26c067c1d1d9ba1764736f6c634300050c0032",
  "source": "pragma solidity ^0.5.11;\r\n\r\ncontract crowd_Funding_4 {\r\n    struct Investor {\r\n        address payable addr;\r\n        uint amount;\r\n    }\r\n    \r\n    address payable public owner;\r\n    uint public numInvestors;\r\n    uint public deadline;\r\n    string public status;\r\n    bool public ended;\r\n    uint public goalAmount;\r\n    uint public totalAmount;\r\n    \r\n    mapping (uint =>Investor) public investors;\r\n    \r\n    modifier onlyOwner(){\r\n        require(msg.sender == owner);\r\n        _;\r\n    }\r\n    \r\n    constructor(uint _duration, uint _goalAmount) public {\r\n        owner = msg.sender;\r\n        deadline = now + _duration;\r\n        goalAmount = _goalAmount;\r\n        status = \"in progress...\";\r\n        ended = false;\r\n        \r\n        numInvestors = 0;\r\n        totalAmount = 0;\r\n    }\r\n    \r\n    function fund() public payable {\r\n        require(!ended);\r\n        \r\n        Investor storage inv = investors[numInvestors++];\r\n        inv.addr = msg.sender;\r\n        inv.amount = msg.value;\r\n        totalAmount += inv.amount;\r\n    }\r\n    \r\n    function checkGoalReached () public onlyOwner{\r\n        require(!ended);\r\n        require(now>=deadline);\r\n        \r\n        if(totalAmount >= goalAmount) {\r\n            status = \"funding success. thank you guys!\";\r\n            ended = true;\r\n            if(!owner.send(address(this).balance)){\r\n                revert();\r\n            }\r\n        } else {\r\n            uint i = 0;\r\n            status = \"funding failed...\";\r\n            ended = true;\r\n            \r\n            while(i <= numInvestors) {\r\n                if(!investors[i].addr.send(investors[i].amount)){\r\n                    revert();\r\n                }\r\n                i++;\r\n            }\r\n        }\r\n    }\r\n    \r\n    function kill() public onlyOwner {\r\n        selfdestruct(owner);\r\n    }\r\n\r\n    function returnGoalAmount() public view returns (uint){\r\n        return goalAmount;\r\n    }\r\n\r\n    function returnTotalAmount() public view returns (uint){\r\n        return totalAmount;\r\n    }\r\n\r\n    function returnDeadline() public view returns (uint){\r\n        return deadline;\r\n    }\r\n}",
  "sourcePath": "C:/Users/정현두/Desktop/blockchain/SC_crowd_funding/blockchain_core/contracts/crowd_Funding_4.sol",
  "compiler": {
    "name": "solc",
    "version": "0.5.12+commit.7709ece9.Emscripten.clang"
  },
  "schemaVersion": "3.0.20",
  "updatedAt": "2020-01-07T04:37:39.755Z",
  "networkType": "ethereum",
  "devdoc": {
    "methods": {}
  },
  "userdoc": {
    "methods": {}
  }
}