{
  "contractName": "crowd_Funding",
  "abi": [
    {
      "inputs": [
        {
          "internalType": "uint256",
          "name": "_duration",
          "type": "uint256"
        },
        {
          "internalType": "uint256",
          "name": "_goalAmount",
          "type": "uint256"
        }
      ],
      "payable": false,
      "stateMutability": "nonpayable",
      "type": "constructor"
    },
    {
      "constant": true,
      "inputs": [],
      "name": "deadline",
      "outputs": [
        {
          "internalType": "uint256",
          "name": "",
          "type": "uint256"
        }
      ],
      "payable": false,
      "stateMutability": "view",
      "type": "function"
    },
    {
      "constant": true,
      "inputs": [],
      "name": "ended",
      "outputs": [
        {
          "internalType": "bool",
          "name": "",
          "type": "bool"
        }
      ],
      "payable": false,
      "stateMutability": "view",
      "type": "function"
    },
    {
      "constant": true,
      "inputs": [],
      "name": "goalAmount",
      "outputs": [
        {
          "internalType": "uint256",
          "name": "",
          "type": "uint256"
        }
      ],
      "payable": false,
      "stateMutability": "view",
      "type": "function"
    },
    {
      "constant": true,
      "inputs": [
        {
          "internalType": "uint256",
          "name": "",
          "type": "uint256"
        }
      ],
      "name": "investors",
      "outputs": [
        {
          "internalType": "address payable",
          "name": "addr",
          "type": "address"
        },
        {
          "internalType": "uint256",
          "name": "amount",
          "type": "uint256"
        }
      ],
      "payable": false,
      "stateMutability": "view",
      "type": "function"
    },
    {
      "constant": true,
      "inputs": [],
      "name": "numInvestors",
      "outputs": [
        {
          "internalType": "uint256",
          "name": "",
          "type": "uint256"
        }
      ],
      "payable": false,
      "stateMutability": "view",
      "type": "function"
    },
    {
      "constant": true,
      "inputs": [],
      "name": "owner",
      "outputs": [
        {
          "internalType": "address payable",
          "name": "",
          "type": "address"
        }
      ],
      "payable": false,
      "stateMutability": "view",
      "type": "function"
    },
    {
      "constant": true,
      "inputs": [],
      "name": "status",
      "outputs": [
        {
          "internalType": "string",
          "name": "",
          "type": "string"
        }
      ],
      "payable": false,
      "stateMutability": "view",
      "type": "function"
    },
    {
      "constant": true,
      "inputs": [],
      "name": "totalAmount",
      "outputs": [
        {
          "internalType": "uint256",
          "name": "",
          "type": "uint256"
        }
      ],
      "payable": false,
      "stateMutability": "view",
      "type": "function"
    },
    {
      "constant": false,
      "inputs": [],
      "name": "fund",
      "outputs": [],
      "payable": true,
      "stateMutability": "payable",
      "type": "function"
    },
    {
      "constant": false,
      "inputs": [],
      "name": "checkGoalReached",
      "outputs": [],
      "payable": false,
      "stateMutability": "nonpayable",
      "type": "function"
    },
    {
      "constant": false,
      "inputs": [],
      "name": "kill",
      "outputs": [],
      "payable": false,
      "stateMutability": "nonpayable",
      "type": "function"
    }
  ],
  "bytecode": "0x608060405234801561001057600080fd5b50604051610ab0380380610ab08339818101604052604081101561003357600080fd5b810190808051906020019092919080519060200190929190505050336000806101000a81548173ffffffffffffffffffffffffffffffffffffffff021916908373ffffffffffffffffffffffffffffffffffffffff160217905550814201600281905550806005819055506040518060400160405280600e81526020017f696e2070726f67726573732e2e2e000000000000000000000000000000000000815250600390805190602001906100e992919061011c565b506000600460006101000a81548160ff0219169083151502179055506000600181905550600060068190555050506101c1565b828054600181600116156101000203166002900490600052602060002090601f016020900481019282601f1061015d57805160ff191683800117855561018b565b8280016001018555821561018b579182015b8281111561018a57825182559160200191906001019061016f565b5b509050610198919061019c565b5090565b6101be91905b808211156101ba5760008160009055506001016101a2565b5090565b90565b6108e0806101d06000396000f3fe60806040526004361061009c5760003560e01c80632636b945116100645780632636b945146101cd57806329dcb0cf146101f85780633feb5f2b1461022357806341c0e1b5146102a55780638da5cb5b146102bc578063b60d4288146103135761009c565b806301cb3b20146100a157806312fa6feb146100b8578063132ae5e9146100e75780631a39d8ef14610112578063200d2ed21461013d575b600080fd5b3480156100ad57600080fd5b506100b661031d565b005b3480156100c457600080fd5b506100cd61059d565b604051808215151515815260200191505060405180910390f35b3480156100f357600080fd5b506100fc6105b0565b6040518082815260200191505060405180910390f35b34801561011e57600080fd5b506101276105b6565b6040518082815260200191505060405180910390f35b34801561014957600080fd5b506101526105bc565b6040518080602001828103825283818151815260200191508051906020019080838360005b83811015610192578082015181840152602081019050610177565b50505050905090810190601f1680156101bf5780820380516001836020036101000a031916815260200191505b509250505060405180910390f35b3480156101d957600080fd5b506101e261065a565b6040518082815260200191505060405180910390f35b34801561020457600080fd5b5061020d610660565b6040518082815260200191505060405180910390f35b34801561022f57600080fd5b5061025c6004803603602081101561024657600080fd5b8101908080359060200190929190505050610666565b604051808373ffffffffffffffffffffffffffffffffffffffff1673ffffffffffffffffffffffffffffffffffffffff1681526020018281526020019250505060405180910390f35b3480156102b157600080fd5b506102ba6106aa565b005b3480156102c857600080fd5b506102d161073d565b604051808273ffffffffffffffffffffffffffffffffffffffff1673ffffffffffffffffffffffffffffffffffffffff16815260200191505060405180910390f35b61031b610762565b005b6000809054906101000a900473ffffffffffffffffffffffffffffffffffffffff1673ffffffffffffffffffffffffffffffffffffffff163373ffffffffffffffffffffffffffffffffffffffff161461037657600080fd5b600460009054906101000a900460ff161561039057600080fd5b60025442101561039f57600080fd5b6005546006541061048c576040518060400160405280602081526020017f66756e64696e6720737563636573732e207468616e6b20796f75206775797321815250600390805190602001906103f5929190610806565b506001600460006101000a81548160ff0219169083151502179055506000809054906101000a900473ffffffffffffffffffffffffffffffffffffffff1673ffffffffffffffffffffffffffffffffffffffff166108fc3073ffffffffffffffffffffffffffffffffffffffff16319081150290604051600060405180830381858888f1935050505061048757600080fd5b61059b565b60008090506040518060400160405280601181526020017f66756e64696e67206661696c65642e2e2e000000000000000000000000000000815250600390805190602001906104dc929190610806565b506001600460006101000a81548160ff0219169083151502179055505b6001548111610599576007600082815260200190815260200160002060000160009054906101000a900473ffffffffffffffffffffffffffffffffffffffff1673ffffffffffffffffffffffffffffffffffffffff166108fc60076000848152602001908152602001600020600101549081150290604051600060405180830381858888f1935050505061058c57600080fd5b80806001019150506104f9565b505b565b600460009054906101000a900460ff1681565b60015481565b60065481565b60038054600181600116156101000203166002900480601f0160208091040260200160405190810160405280929190818152602001828054600181600116156101000203166002900480156106525780601f1061062757610100808354040283529160200191610652565b820191906000526020600020905b81548152906001019060200180831161063557829003601f168201915b505050505081565b60055481565b60025481565b60076020528060005260406000206000915090508060000160009054906101000a900473ffffffffffffffffffffffffffffffffffffffff16908060010154905082565b6000809054906101000a900473ffffffffffffffffffffffffffffffffffffffff1673ffffffffffffffffffffffffffffffffffffffff163373ffffffffffffffffffffffffffffffffffffffff161461070357600080fd5b6000809054906101000a900473ffffffffffffffffffffffffffffffffffffffff1673ffffffffffffffffffffffffffffffffffffffff16ff5b6000809054906101000a900473ffffffffffffffffffffffffffffffffffffffff1681565b600460009054906101000a900460ff161561077c57600080fd5b600060076000600160008154809291906001019190505581526020019081526020016000209050338160000160006101000a81548173ffffffffffffffffffffffffffffffffffffffff021916908373ffffffffffffffffffffffffffffffffffffffff160217905550348160010181905550806001015460066000828254019250508190555050565b828054600181600116156101000203166002900490600052602060002090601f016020900481019282601f1061084757805160ff1916838001178555610875565b82800160010185558215610875579182015b82811115610874578251825591602001919060010190610859565b5b5090506108829190610886565b5090565b6108a891905b808211156108a457600081600090555060010161088c565b5090565b9056fea265627a7a7231582047477a79b8decf94b42786529c33a0b150d25ae6f37db4936c5681cf7872500064736f6c634300050c0032",
  "source": "pragma solidity ^0.5.11;\r\n\r\ncontract crowd_Funding {\r\n    struct Investor {\r\n        address payable addr;\r\n        uint amount;\r\n    }\r\n    \r\n    address payable public owner;\r\n    uint public numInvestors;\r\n    uint public deadline;\r\n    string public status;\r\n    bool public ended;\r\n    uint public goalAmount;\r\n    uint public totalAmount;\r\n    \r\n    mapping (uint =>Investor) public investors;\r\n    \r\n    modifier onlyOwner(){\r\n        require(msg.sender == owner);\r\n        _;\r\n    }\r\n    \r\n    constructor(uint _duration, uint _goalAmount) public {\r\n        owner = msg.sender;\r\n        deadline = now + _duration;\r\n        goalAmount = _goalAmount;\r\n        status = \"in progress...\";\r\n        ended = false;\r\n        \r\n        numInvestors = 0;\r\n        totalAmount = 0;\r\n    }\r\n    \r\n    function fund() public payable {\r\n        require(!ended);\r\n        \r\n        Investor storage inv = investors[numInvestors++];\r\n        inv.addr = msg.sender;\r\n        inv.amount = msg.value;\r\n        totalAmount += inv.amount;\r\n    }\r\n    \r\n    function checkGoalReached () public onlyOwner{\r\n        require(!ended);\r\n        require(now>=deadline);\r\n        \r\n        if(totalAmount >= goalAmount) {\r\n            status = \"funding success. thank you guys!\";\r\n            ended = true;\r\n            if(!owner.send(address(this).balance)){\r\n                revert();\r\n            }\r\n        } else {\r\n            uint i = 0;\r\n            status = \"funding failed...\";\r\n            ended = true;\r\n            \r\n            while(i <= numInvestors) {\r\n                if(!investors[i].addr.send(investors[i].amount)){\r\n                    revert();\r\n                }\r\n                i++;\r\n            }\r\n        }\r\n    }\r\n    \r\n    function kill() public onlyOwner {\r\n        selfdestruct(owner);\r\n    }\r\n}",
  "sourcePath": "C:/Users/정현두/Desktop/blockchain/SC_crowd_funding/blockchain_core/contracts/Crowd_funding.sol",
  "compiler": {
    "name": "solc",
    "version": "0.5.12+commit.7709ece9.Emscripten.clang"
  },
  "schemaVersion": "3.0.20",
  "updatedAt": "2020-01-06T01:25:11.490Z",
  "devdoc": {
    "methods": {}
  },
  "userdoc": {
    "methods": {}
  }
}